{
  "contractName": "BaseBot",
  "abi": [
    {
      "inputs": [
        {
          "internalType": "address",
          "name": "_baseBotFactory",
          "type": "address"
        },
        {
          "internalType": "address",
          "name": "_weth",
          "type": "address"
        },
        {
          "internalType": "uint24",
          "name": "_defaultFee",
          "type": "uint24"
        }
      ],
      "stateMutability": "nonpayable",
      "type": "constructor"
    },
    {
      "inputs": [],
      "name": "baseBotFactory",
      "outputs": [
        {
          "internalType": "address",
          "name": "",
          "type": "address"
        }
      ],
      "stateMutability": "view",
      "type": "function"
    },
    {
      "inputs": [],
      "name": "defaultFee",
      "outputs": [
        {
          "internalType": "uint24",
          "name": "",
          "type": "uint24"
        }
      ],
      "stateMutability": "view",
      "type": "function"
    },
    {
      "inputs": [],
      "name": "weth",
      "outputs": [
        {
          "internalType": "address",
          "name": "",
          "type": "address"
        }
      ],
      "stateMutability": "view",
      "type": "function"
    },
    {
      "inputs": [
        {
          "internalType": "address",
          "name": "_tokenOut",
          "type": "address"
        },
        {
          "internalType": "uint32",
          "name": "_twapPeriod",
          "type": "uint32"
        },
        {
          "internalType": "uint256",
          "name": "_amountIn",
          "type": "uint256"
        }
      ],
      "name": "ethToAsset",
      "outputs": [
        {
          "internalType": "uint256",
          "name": "amountOut",
          "type": "uint256"
        }
      ],
      "stateMutability": "view",
      "type": "function"
    }
  ],
  "bytecode": "0x60e060405234801561001057600080fd5b506040516111083803806111088339818101604052606081101561003357600080fd5b810190808051906020019092919080519060200190929190805190602001909291905050508273ffffffffffffffffffffffffffffffffffffffff1660808173ffffffffffffffffffffffffffffffffffffffff1660601b815250508173ffffffffffffffffffffffffffffffffffffffff1660a08173ffffffffffffffffffffffffffffffffffffffff1660601b815250508062ffffff1660c08162ffffff1660e81b8152505050505060805160601c60a05160601c60c05160e81c610fe1610127600039806101c0528061026152508061019e528061020b528061023d525080610150528061017a5250610fe16000f3fe608060405234801561001057600080fd5b506004361061004c5760003560e01c80631f2e7de01461005157806333c22224146100855780633fc8cef3146100f75780635a6c72d01461012b575b600080fd5b61005961014e565b604051808273ffffffffffffffffffffffffffffffffffffffff16815260200191505060405180910390f35b6100e16004803603606081101561009b57600080fd5b81019080803573ffffffffffffffffffffffffffffffffffffffff169060200190929190803563ffffffff16906020019092919080359060200190929190505050610172565b6040518082815260200191505060405180910390f35b6100ff61023b565b604051808273ffffffffffffffffffffffffffffffffffffffff16815260200191505060405180910390f35b61013361025f565b604051808262ffffff16815260200191505060405180910390f35b7f000000000000000000000000000000000000000000000000000000000000000081565b6000806101e97f00000000000000000000000000000000000000000000000000000000000000006101e47f0000000000000000000000000000000000000000000000000000000000000000887f0000000000000000000000000000000000000000000000000000000000000000610283565b61031f565b905060006101f7828661047a565b60020b90506102308161020986610819565b7f000000000000000000000000000000000000000000000000000000000000000089610841565b925050509392505050565b7f000000000000000000000000000000000000000000000000000000000000000081565b7f000000000000000000000000000000000000000000000000000000000000000081565b61028b610f59565b8273ffffffffffffffffffffffffffffffffffffffff168473ffffffffffffffffffffffffffffffffffffffff1611156102ca57828480945081955050505b60405180606001604052808573ffffffffffffffffffffffffffffffffffffffff1681526020018473ffffffffffffffffffffffffffffffffffffffff1681526020018362ffffff1681525090509392505050565b6000816020015173ffffffffffffffffffffffffffffffffffffffff16826000015173ffffffffffffffffffffffffffffffffffffffff161061036157600080fd5b82826000015183602001518460400151604051602001808473ffffffffffffffffffffffffffffffffffffffff1681526020018373ffffffffffffffffffffffffffffffffffffffff1681526020018262ffffff1681526020019350505050604051602081830303815290604052805190602001207fe34f199b19b2b4f47f68442619d555527d244f78a3297ea89325f843f87b8b5460001b60405160200180807fff000000000000000000000000000000000000000000000000000000000000008152506001018473ffffffffffffffffffffffffffffffffffffffff1660601b815260140183815260200182815260200193505050506040516020818303038152906040528051906020012060001c905092915050565b6000808263ffffffff1614156104f8576040517f08c379a00000000000000000000000000000000000000000000000000000000081526004018080602001828103825260028152602001807f425000000000000000000000000000000000000000000000000000000000000081525060200191505060405180910390fd5b6000600267ffffffffffffffff8111801561051257600080fd5b506040519080825280602002602001820160405280156105415781602001602082028036833780820191505090505b509050828160008151811061055257fe5b602002602001019063ffffffff16908163ffffffff168152505060008160018151811061057b57fe5b602002602001019063ffffffff16908163ffffffff168152505060008473ffffffffffffffffffffffffffffffffffffffff1663883bdbfd836040518263ffffffff1660e01b81526004018080602001828103825283818151815260200191508051906020019060200280838360005b838110156106065780820151818401526020810190506105eb565b505050509050019250505060006040518083038186803b15801561062957600080fd5b505afa15801561063d573d6000803e3d6000fd5b505050506040513d6000823e3d601f19601f82011682018060405250604081101561066757600080fd5b810190808051604051939291908464010000000082111561068757600080fd5b8382019150602082018581111561069d57600080fd5b82518660208202830111640100000000821117156106ba57600080fd5b8083526020830192505050908051906020019060200280838360005b838110156106f15780820151818401526020810190506106d6565b505050509050016040526020018051604051939291908464010000000082111561071a57600080fd5b8382019150602082018581111561073057600080fd5b825186602082028301116401000000008211171561074d57600080fd5b8083526020830192505050908051906020019060200280838360005b83811015610784578082015181840152602081019050610769565b505050509050016040525050505090506000816000815181106107a357fe5b6020026020010151826001815181106107b857fe5b60200260200101510390508463ffffffff168160060b816107d557fe5b05935060008160060b128015610801575060008563ffffffff168260060b816107fa57fe5b0760060b14155b15610810578380600190039450505b50505092915050565b600081829150816fffffffffffffffffffffffffffffffff161461083c57600080fd5b919050565b60008061084d86610a44565b90506fffffffffffffffffffffffffffffffff80168173ffffffffffffffffffffffffffffffffffffffff161161095e5760008173ffffffffffffffffffffffffffffffffffffffff168273ffffffffffffffffffffffffffffffffffffffff160290508373ffffffffffffffffffffffffffffffffffffffff168573ffffffffffffffffffffffffffffffffffffffff161061091f5761091a7801000000000000000000000000000000000000000000000000876fffffffffffffffffffffffffffffffff1683610e7f565b610956565b61095581876fffffffffffffffffffffffffffffffff167801000000000000000000000000000000000000000000000000610e7f565b5b925050610a3b565b60006109a08273ffffffffffffffffffffffffffffffffffffffff168373ffffffffffffffffffffffffffffffffffffffff1668010000000000000000610e7f565b90508373ffffffffffffffffffffffffffffffffffffffff168573ffffffffffffffffffffffffffffffffffffffff1610610a0857610a03700100000000000000000000000000000000876fffffffffffffffffffffffffffffffff1683610e7f565b610a37565b610a3681876fffffffffffffffffffffffffffffffff16700100000000000000000000000000000000610e7f565b5b9250505b50949350505050565b60008060008360020b12610a5b578260020b610a63565b8260020b6000035b90507ffffffffffffffffffffffffffffffffffffffffffffffffffffffffffff2761860000360020b811115610b01576040517f08c379a00000000000000000000000000000000000000000000000000000000081526004018080602001828103825260018152602001807f540000000000000000000000000000000000000000000000000000000000000081525060200191505060405180910390fd5b600080600183161415610b2557700100000000000000000000000000000000610b37565b6ffffcb933bd6fad37aa2d162d1a5940015b70ffffffffffffffffffffffffffffffffff16905060006002831614610b715760806ffff97272373d413259a46990580e213a8202901c90505b60006004831614610b965760806ffff2e50f5f656932ef12357cf3c7fdcc8202901c90505b60006008831614610bbb5760806fffe5caca7e10e4e61c3624eaa0941cd08202901c90505b60006010831614610be05760806fffcb9843d60f6159c9db58835c9266448202901c90505b60006020831614610c055760806fff973b41fa98c081472e6896dfb254c08202901c90505b60006040831614610c2a5760806fff2ea16466c96a3843ec78b326b528618202901c90505b60006080831614610c4f5760806ffe5dee046a99a2a811c461f1969c30538202901c90505b6000610100831614610c755760806ffcbe86c7900a88aedcffc83b479aa3a48202901c90505b6000610200831614610c9b5760806ff987a7253ac413176f2b074cf7815e548202901c90505b6000610400831614610cc15760806ff3392b0822b70005940c7a398e4b70f38202901c90505b6000610800831614610ce75760806fe7159475a2c29b7443b29c7fa6e889d98202901c90505b6000611000831614610d0d5760806fd097f3bdfd2022b8845ad8f792aa58258202901c90505b6000612000831614610d335760806fa9f746462d870fdf8a65dc1f90e061e58202901c90505b6000614000831614610d595760806f70d869a156d2a1b890bb3df62baf32f78202901c90505b6000618000831614610d7f5760806f31be135f97d08fd981231505542fcfa68202901c90505b600062010000831614610da65760806f09aa508b5b7a84e1c677de54f3e99bc98202901c90505b600062020000831614610dcc5760806e5d6af8dedb81196699c329225ee6048202901c90505b600062040000831614610df15760806d2216e584f5fa1ea926041bedfe988202901c90505b600062080000831614610e145760806b048a170391f7dc42444e8fa28202901c90505b60008460020b1315610e4d57807fffffffffffffffffffffffffffffffffffffffffffffffffffffffffffffffff81610e4957fe5b0490505b60006401000000008281610e5d57fe5b0614610e6a576001610e6d565b60005b60ff16602082901c0192505050919050565b600080600080198587098587029250828110838203039150506000811415610eba5760008411610eae57600080fd5b83820492505050610f52565b808411610ec657600080fd5b600084868809905082811182039150808303925060008586600003169050808604955080840493506001818260000304019050808302841793506000600287600302189050808702600203810290508087026002038102905080870260020381029050808702600203810290508087026002038102905080870260020381029050808502955050505050505b9392505050565b6040518060600160405280600073ffffffffffffffffffffffffffffffffffffffff168152602001600073ffffffffffffffffffffffffffffffffffffffff168152602001600062ffffff168152509056fea2646970667358221220f20fc86a3d7f3e71be248143df3307f21e2e98671e56a337935599b89ee6921e64736f6c63430007060033",
  "immutableReferences": {
    "6": [
      {
        "length": 32,
        "start": 336
      },
      {
        "length": 32,
        "start": 378
      }
    ],
    "8": [
      {
        "length": 32,
        "start": 414
      },
      {
        "length": 32,
        "start": 523
      },
      {
        "length": 32,
        "start": 573
      }
    ],
    "10": [
      {
        "length": 32,
        "start": 448
      },
      {
        "length": 32,
        "start": 609
      }
    ]
  },
  "source": "// SPDX-License-Identifier: GPL-2.0-or-later\npragma solidity =0.7.6;\n\nimport \"./libraries/OracleLibrary.sol\";\nimport \"./libraries/PoolAddress.sol\";\nimport \"./libraries/SafeUint128.sol\";\n\ncontract BaseBot {\n    address public immutable baseBotFactory;\n    address public immutable weth;\n    uint24 public immutable defaultFee;\n\n    constructor(\n        address _baseBotFactory,\n        address _weth,\n        uint24 _defaultFee\n    ) {\n        baseBotFactory = _baseBotFactory;\n        weth = _weth;\n        defaultFee = _defaultFee;\n    }\n\n    function ethToAsset(\n        address _tokenOut,\n        uint32 _twapPeriod,\n        uint256 _amountIn\n    ) public view returns (uint256 amountOut) {\n        address pool =\n            PoolAddress.computeAddress(\n                baseBotFactory,\n                PoolAddress.getPoolKey(weth, _tokenOut, defaultFee)\n            );\n        // Leave twapTick as a int256 to avoid solidity casting\n        int256 twapTick = OracleLibrary.consult(pool, _twapPeriod);\n        return\n            OracleLibrary.getQuoteAtTick(\n                int24(twapTick), // can assume safe being result from consult()\n                SafeUint128.toUint128(_amountIn),\n                weth,\n                _tokenOut\n            );\n    }\n}\n",
  "sourcePath": "/Users/ceren/Documents/code/private-on-chain-trading/contracts/BaseBot.sol",
  "compiler": {
    "name": "solc",
    "version": "0.7.6+commit.7338295f.Emscripten.clang"
  },
  "schemaVersion": "3.4.1",
  "updatedAt": "2021-06-14T13:07:47.653Z",
  "devdoc": {
    "kind": "dev",
    "methods": {},
    "version": 1
  },
  "userdoc": {
    "kind": "user",
    "methods": {},
    "version": 1
  }
}