{
  "contractName": "UniswapV3CrossPoolOracle",
  "abi": [
    {
      "inputs": [
        {
          "internalType": "address",
          "name": "_uniswapV3Factory",
          "type": "address"
        },
        {
          "internalType": "address",
          "name": "_weth",
          "type": "address"
        },
        {
          "internalType": "uint24",
          "name": "_defaultFee",
          "type": "uint24"
        }
      ],
      "stateMutability": "nonpayable",
      "type": "constructor"
    },
    {
      "inputs": [],
      "name": "defaultFee",
      "outputs": [
        {
          "internalType": "uint24",
          "name": "",
          "type": "uint24"
        }
      ],
      "stateMutability": "view",
      "type": "function"
    },
    {
      "inputs": [],
      "name": "uniswapV3Factory",
      "outputs": [
        {
          "internalType": "address",
          "name": "",
          "type": "address"
        }
      ],
      "stateMutability": "view",
      "type": "function"
    },
    {
      "inputs": [],
      "name": "weth",
      "outputs": [
        {
          "internalType": "address",
          "name": "",
          "type": "address"
        }
      ],
      "stateMutability": "view",
      "type": "function"
    },
    {
      "inputs": [
        {
          "internalType": "address",
          "name": "_tokenIn",
          "type": "address"
        },
        {
          "internalType": "uint256",
          "name": "_amountIn",
          "type": "uint256"
        },
        {
          "internalType": "uint32",
          "name": "_twapPeriod",
          "type": "uint32"
        }
      ],
      "name": "assetToEth",
      "outputs": [
        {
          "internalType": "uint256",
          "name": "ethAmountOut",
          "type": "uint256"
        }
      ],
      "stateMutability": "view",
      "type": "function"
    },
    {
      "inputs": [
        {
          "internalType": "uint256",
          "name": "_ethAmountIn",
          "type": "uint256"
        },
        {
          "internalType": "address",
          "name": "_tokenOut",
          "type": "address"
        },
        {
          "internalType": "uint32",
          "name": "_twapPeriod",
          "type": "uint32"
        }
      ],
      "name": "ethToAsset",
      "outputs": [
        {
          "internalType": "uint256",
          "name": "amountOut",
          "type": "uint256"
        }
      ],
      "stateMutability": "view",
      "type": "function"
    }
  ],
  "bytecode": "0x60e060405234801561001057600080fd5b50604051610a86380380610a868339818101604052606081101561003357600080fd5b810190808051906020019092919080519060200190929190805190602001909291905050508273ffffffffffffffffffffffffffffffffffffffff1660808173ffffffffffffffffffffffffffffffffffffffff1660601b815250508173ffffffffffffffffffffffffffffffffffffffff1660a08173ffffffffffffffffffffffffffffffffffffffff1660601b815250508062ffffff1660c08162ffffff1660e81b8152505050505060805160601c60a05160601c60c05160e81c61095a61012c600039806101f1528061023c52806102b85250806101cd528061021b528061029652508061026d52806102ef525061095a6000f3fe608060405234801561001057600080fd5b50600436106100575760003560e01c80633fc8cef31461005c5780635a6c72d0146100905780635b36add4146100b35780635b54918214610125578063b4bdf8b014610159575b600080fd5b6100646101cb565b604051808273ffffffffffffffffffffffffffffffffffffffff16815260200191505060405180910390f35b6100986101ef565b604051808262ffffff16815260200191505060405180910390f35b61010f600480360360608110156100c957600080fd5b81019080803573ffffffffffffffffffffffffffffffffffffffff16906020019092919080359060200190929190803563ffffffff169060200190929190505050610213565b6040518082815260200191505060405180910390f35b61012d61026b565b604051808273ffffffffffffffffffffffffffffffffffffffff16815260200191505060405180910390f35b6101b56004803603606081101561016f57600080fd5b8101908080359060200190929190803573ffffffffffffffffffffffffffffffffffffffff169060200190929190803563ffffffff16906020019092919050505061028f565b6040518082815260200191505060405180910390f35b7f000000000000000000000000000000000000000000000000000000000000000081565b7f000000000000000000000000000000000000000000000000000000000000000081565b6000610262847f00000000000000000000000000000000000000000000000000000000000000007f000000000000000000000000000000000000000000000000000000000000000085876102e7565b90509392505050565b7f000000000000000000000000000000000000000000000000000000000000000081565b60006102de7f0000000000000000000000000000000000000000000000000000000000000000847f000000000000000000000000000000000000000000000000000000000000000085886102e7565b90509392505050565b60008061031e7f000000000000000000000000000000000000000000000000000000000000000061031989898961033c565b6103d8565b9050600061032c8286610533565b60020b9050505095945050505050565b6103446108d2565b8273ffffffffffffffffffffffffffffffffffffffff168473ffffffffffffffffffffffffffffffffffffffff16111561038357828480945081955050505b60405180606001604052808573ffffffffffffffffffffffffffffffffffffffff1681526020018473ffffffffffffffffffffffffffffffffffffffff1681526020018362ffffff1681525090509392505050565b6000816020015173ffffffffffffffffffffffffffffffffffffffff16826000015173ffffffffffffffffffffffffffffffffffffffff161061041a57600080fd5b82826000015183602001518460400151604051602001808473ffffffffffffffffffffffffffffffffffffffff1681526020018373ffffffffffffffffffffffffffffffffffffffff1681526020018262ffffff1681526020019350505050604051602081830303815290604052805190602001207fe34f199b19b2b4f47f68442619d555527d244f78a3297ea89325f843f87b8b5460001b60405160200180807fff000000000000000000000000000000000000000000000000000000000000008152506001018473ffffffffffffffffffffffffffffffffffffffff1660601b815260140183815260200182815260200193505050506040516020818303038152906040528051906020012060001c905092915050565b6000808263ffffffff1614156105b1576040517f08c379a00000000000000000000000000000000000000000000000000000000081526004018080602001828103825260028152602001807f425000000000000000000000000000000000000000000000000000000000000081525060200191505060405180910390fd5b6000600267ffffffffffffffff811180156105cb57600080fd5b506040519080825280602002602001820160405280156105fa5781602001602082028036833780820191505090505b509050828160008151811061060b57fe5b602002602001019063ffffffff16908163ffffffff168152505060008160018151811061063457fe5b602002602001019063ffffffff16908163ffffffff168152505060008473ffffffffffffffffffffffffffffffffffffffff1663883bdbfd836040518263ffffffff1660e01b81526004018080602001828103825283818151815260200191508051906020019060200280838360005b838110156106bf5780820151818401526020810190506106a4565b505050509050019250505060006040518083038186803b1580156106e257600080fd5b505afa1580156106f6573d6000803e3d6000fd5b505050506040513d6000823e3d601f19601f82011682018060405250604081101561072057600080fd5b810190808051604051939291908464010000000082111561074057600080fd5b8382019150602082018581111561075657600080fd5b825186602082028301116401000000008211171561077357600080fd5b8083526020830192505050908051906020019060200280838360005b838110156107aa57808201518184015260208101905061078f565b50505050905001604052602001805160405193929190846401000000008211156107d357600080fd5b838201915060208201858111156107e957600080fd5b825186602082028301116401000000008211171561080657600080fd5b8083526020830192505050908051906020019060200280838360005b8381101561083d578082015181840152602081019050610822565b5050505090500160405250505050905060008160008151811061085c57fe5b60200260200101518260018151811061087157fe5b60200260200101510390508463ffffffff168160060b8161088e57fe5b05935060008160060b1280156108ba575060008563ffffffff168260060b816108b357fe5b0760060b14155b156108c9578380600190039450505b50505092915050565b6040518060600160405280600073ffffffffffffffffffffffffffffffffffffffff168152602001600073ffffffffffffffffffffffffffffffffffffffff168152602001600062ffffff168152509056fea26469706673582212208bc4c1e6835668d9add4ac62a6d8a754fb05a3d28fdebdaec0ff98232d3bccab64736f6c63430007060033",
  "immutableReferences": {
    "7": [
      {
        "length": 32,
        "start": 621
      },
      {
        "length": 32,
        "start": 751
      }
    ],
    "9": [
      {
        "length": 32,
        "start": 461
      },
      {
        "length": 32,
        "start": 539
      },
      {
        "length": 32,
        "start": 662
      }
    ],
    "11": [
      {
        "length": 32,
        "start": 497
      },
      {
        "length": 32,
        "start": 572
      },
      {
        "length": 32,
        "start": 696
      }
    ]
  },
  "source": "// SPDX-License-Identifier: GPL-2.0-or-later\npragma solidity =0.7.6;\n\nimport './libraries/OracleLibrary.sol';\nimport './libraries/PoolAddress.sol';\nimport './libraries/SafeUint128.sol';\n\n/// @title UniswapV3 oracle with ability to query across an intermediate liquidity pool\ncontract UniswapV3CrossPoolOracle {\n    address public immutable uniswapV3Factory;\n    address public immutable weth;\n    uint24 public immutable defaultFee;\n    \n\n    constructor (\n        address _uniswapV3Factory,\n        address _weth,\n        uint24 _defaultFee\n    ) {\n        uniswapV3Factory = _uniswapV3Factory;\n        weth = _weth;\n        defaultFee = _defaultFee;\n    }\n\n    function assetToEth(\n        address _tokenIn,\n        uint256 _amountIn,\n        uint32 _twapPeriod\n    ) public view returns (uint256 ethAmountOut) {\n        return _fetchTwap(_tokenIn, weth, defaultFee, _twapPeriod, _amountIn);\n    }\n\n    function ethToAsset(\n        uint256 _ethAmountIn,\n        address _tokenOut,\n        uint32 _twapPeriod\n    ) public view returns (uint256 amountOut) {\n        return _fetchTwap(weth, _tokenOut, defaultFee, _twapPeriod, _ethAmountIn);\n    }\n\n\n    function _fetchTwap(\n        address _tokenIn,\n        address _tokenOut,\n        uint24 _poolFee,\n        uint32 _twapPeriod,\n        uint256 _amountIn\n    ) internal view returns (uint256 amountOut) {\n        address pool =\n            PoolAddress.computeAddress(uniswapV3Factory, PoolAddress.getPoolKey(_tokenIn, _tokenOut, _poolFee));\n        // Leave twapTick as a int256 to avoid solidity casting\n        int256 twapTick = OracleLibrary.consult(pool, _twapPeriod);\n        //return\n        //    OracleLibrary.getQuoteAtTick(\n        //        int24(twapTick), // can assume safe being result from consult()\n        //        SafeUint128.toUint128(_amountIn),\n        //        _tokenIn,\n        //        _tokenOut\n        //    );\n    }\n}\n",
  "sourcePath": "/Users/ceren/Documents/code/private-on-chain-trading/contracts/BaseBot.sol",
  "compiler": {
    "name": "solc",
    "version": "0.7.6+commit.7338295f.Emscripten.clang"
  },
  "schemaVersion": "3.4.1",
  "updatedAt": "2021-06-14T12:03:04.514Z",
  "devdoc": {
    "kind": "dev",
    "methods": {},
    "title": "UniswapV3 oracle with ability to query across an intermediate liquidity pool",
    "version": 1
  },
  "userdoc": {
    "kind": "user",
    "methods": {},
    "version": 1
  }
}